{
  "contractName": "NFTMarket",
  "abi": [
    {
      "inputs": [],
      "stateMutability": "nonpayable",
      "type": "constructor"
    },
    {
      "anonymous": false,
      "inputs": [
        {
          "indexed": true,
          "internalType": "address",
          "name": "owner",
          "type": "address"
        },
        {
          "indexed": true,
          "internalType": "address",
          "name": "approved",
          "type": "address"
        },
        {
          "indexed": true,
          "internalType": "uint256",
          "name": "tokenId",
          "type": "uint256"
        }
      ],
      "name": "Approval",
      "type": "event"
    },
    {
      "anonymous": false,
      "inputs": [
        {
          "indexed": true,
          "internalType": "address",
          "name": "owner",
          "type": "address"
        },
        {
          "indexed": true,
          "internalType": "address",
          "name": "operator",
          "type": "address"
        },
        {
          "indexed": false,
          "internalType": "bool",
          "name": "approved",
          "type": "bool"
        }
      ],
      "name": "ApprovalForAll",
      "type": "event"
    },
    {
      "anonymous": false,
      "inputs": [
        {
          "indexed": true,
          "internalType": "address",
          "name": "from",
          "type": "address"
        },
        {
          "indexed": true,
          "internalType": "address",
          "name": "to",
          "type": "address"
        },
        {
          "indexed": true,
          "internalType": "uint256",
          "name": "tokenId",
          "type": "uint256"
        }
      ],
      "name": "Transfer",
      "type": "event"
    },
    {
      "inputs": [
        {
          "internalType": "address",
          "name": "to",
          "type": "address"
        },
        {
          "internalType": "uint256",
          "name": "tokenId",
          "type": "uint256"
        }
      ],
      "name": "approve",
      "outputs": [],
      "stateMutability": "nonpayable",
      "type": "function"
    },
    {
      "inputs": [
        {
          "internalType": "address",
          "name": "owner",
          "type": "address"
        }
      ],
      "name": "balanceOf",
      "outputs": [
        {
          "internalType": "uint256",
          "name": "",
          "type": "uint256"
        }
      ],
      "stateMutability": "view",
      "type": "function"
    },
    {
      "inputs": [
        {
          "internalType": "uint256",
          "name": "",
          "type": "uint256"
        }
      ],
      "name": "colorsName",
      "outputs": [
        {
          "internalType": "string",
          "name": "",
          "type": "string"
        }
      ],
      "stateMutability": "view",
      "type": "function"
    },
    {
      "inputs": [
        {
          "internalType": "string",
          "name": "colorCode",
          "type": "string"
        }
      ],
      "name": "createToken",
      "outputs": [],
      "stateMutability": "nonpayable",
      "type": "function"
    },
    {
      "inputs": [
        {
          "internalType": "uint256",
          "name": "tokenId",
          "type": "uint256"
        }
      ],
      "name": "getApproved",
      "outputs": [
        {
          "internalType": "address",
          "name": "",
          "type": "address"
        }
      ],
      "stateMutability": "view",
      "type": "function"
    },
    {
      "inputs": [],
      "name": "getTokenCount",
      "outputs": [
        {
          "internalType": "uint256",
          "name": "",
          "type": "uint256"
        }
      ],
      "stateMutability": "view",
      "type": "function"
    },
    {
      "inputs": [
        {
          "internalType": "uint256",
          "name": "",
          "type": "uint256"
        }
      ],
      "name": "idToMarketItem",
      "outputs": [
        {
          "internalType": "uint256",
          "name": "itemId",
          "type": "uint256"
        },
        {
          "internalType": "address",
          "name": "nftContract",
          "type": "address"
        },
        {
          "internalType": "uint256",
          "name": "tokenId",
          "type": "uint256"
        },
        {
          "internalType": "address payable",
          "name": "seller",
          "type": "address"
        },
        {
          "internalType": "bool",
          "name": "sold",
          "type": "bool"
        }
      ],
      "stateMutability": "view",
      "type": "function"
    },
    {
      "inputs": [
        {
          "internalType": "address",
          "name": "owner",
          "type": "address"
        },
        {
          "internalType": "address",
          "name": "operator",
          "type": "address"
        }
      ],
      "name": "isApprovedForAll",
      "outputs": [
        {
          "internalType": "bool",
          "name": "",
          "type": "bool"
        }
      ],
      "stateMutability": "view",
      "type": "function"
    },
    {
      "inputs": [],
      "name": "itemIds",
      "outputs": [
        {
          "internalType": "uint256",
          "name": "_value",
          "type": "uint256"
        }
      ],
      "stateMutability": "view",
      "type": "function"
    },
    {
      "inputs": [],
      "name": "name",
      "outputs": [
        {
          "internalType": "string",
          "name": "",
          "type": "string"
        }
      ],
      "stateMutability": "view",
      "type": "function"
    },
    {
      "inputs": [
        {
          "internalType": "uint256",
          "name": "tokenId",
          "type": "uint256"
        }
      ],
      "name": "ownerOf",
      "outputs": [
        {
          "internalType": "address",
          "name": "",
          "type": "address"
        }
      ],
      "stateMutability": "view",
      "type": "function"
    },
    {
      "inputs": [
        {
          "internalType": "address",
          "name": "from",
          "type": "address"
        },
        {
          "internalType": "address",
          "name": "to",
          "type": "address"
        },
        {
          "internalType": "uint256",
          "name": "tokenId",
          "type": "uint256"
        }
      ],
      "name": "safeTransferFrom",
      "outputs": [],
      "stateMutability": "nonpayable",
      "type": "function"
    },
    {
      "inputs": [
        {
          "internalType": "address",
          "name": "from",
          "type": "address"
        },
        {
          "internalType": "address",
          "name": "to",
          "type": "address"
        },
        {
          "internalType": "uint256",
          "name": "tokenId",
          "type": "uint256"
        },
        {
          "internalType": "bytes",
          "name": "_data",
          "type": "bytes"
        }
      ],
      "name": "safeTransferFrom",
      "outputs": [],
      "stateMutability": "nonpayable",
      "type": "function"
    },
    {
      "inputs": [
        {
          "internalType": "address",
          "name": "operator",
          "type": "address"
        },
        {
          "internalType": "bool",
          "name": "approved",
          "type": "bool"
        }
      ],
      "name": "setApprovalForAll",
      "outputs": [],
      "stateMutability": "nonpayable",
      "type": "function"
    },
    {
      "inputs": [
        {
          "internalType": "bytes4",
          "name": "interfaceId",
          "type": "bytes4"
        }
      ],
      "name": "supportsInterface",
      "outputs": [
        {
          "internalType": "bool",
          "name": "",
          "type": "bool"
        }
      ],
      "stateMutability": "view",
      "type": "function"
    },
    {
      "inputs": [],
      "name": "symbol",
      "outputs": [
        {
          "internalType": "string",
          "name": "",
          "type": "string"
        }
      ],
      "stateMutability": "view",
      "type": "function"
    },
    {
      "inputs": [
        {
          "internalType": "uint256",
          "name": "tokenId",
          "type": "uint256"
        }
      ],
      "name": "tokenURI",
      "outputs": [
        {
          "internalType": "string",
          "name": "",
          "type": "string"
        }
      ],
      "stateMutability": "view",
      "type": "function"
    },
    {
      "inputs": [
        {
          "internalType": "address",
          "name": "from",
          "type": "address"
        },
        {
          "internalType": "address",
          "name": "to",
          "type": "address"
        },
        {
          "internalType": "uint256",
          "name": "tokenId",
          "type": "uint256"
        }
      ],
      "name": "transferFrom",
      "outputs": [],
      "stateMutability": "nonpayable",
      "type": "function"
    },
    {
      "inputs": [],
      "name": "getItemCount",
      "outputs": [
        {
          "internalType": "uint256",
          "name": "",
          "type": "uint256"
        }
      ],
      "stateMutability": "view",
      "type": "function"
    },
    {
      "inputs": [
        {
          "internalType": "address",
          "name": "nftContract",
          "type": "address"
        },
        {
          "internalType": "uint256",
          "name": "tokenId",
          "type": "uint256"
        }
      ],
      "name": "createMarketItem",
      "outputs": [],
      "stateMutability": "payable",
      "type": "function"
    },
    {
      "inputs": [
        {
          "internalType": "address",
          "name": "nftContract",
          "type": "address"
        },
        {
          "internalType": "uint256",
          "name": "itemId",
          "type": "uint256"
        }
      ],
      "name": "finalizeSale",
      "outputs": [],
      "stateMutability": "payable",
      "type": "function"
    }
  ],
  "bytecode": "0x60806040526658d15e17628000600c553480156200001c57600080fd5b506040518060400160405280600a81526020017f436f6c6f72546f6b656e000000000000000000000000000000000000000000008152506040518060400160405280600281526020017f43540000000000000000000000000000000000000000000000000000000000008152508160009080519060200190620000a19291906200010c565b508060019080519060200190620000ba9291906200010c565b505050600160098190555033600b60006101000a81548173ffffffffffffffffffffffffffffffffffffffff021916908373ffffffffffffffffffffffffffffffffffffffff16021790555062000220565b8280546200011a90620001eb565b90600052602060002090601f0160209004810192826200013e57600085556200018a565b82601f106200015957805160ff19168380011785556200018a565b828001600101855582156200018a579182015b82811115620001895782518255916020019190600101906200016c565b5b5090506200019991906200019d565b5090565b5b80821115620001b85760008160009055506001016200019e565b5090565b7f4e487b7100000000000000000000000000000000000000000000000000000000600052602260045260246000fd5b600060028204905060018216806200020457607f821691505b6020821081036200021a5762000219620001bc565b5b50919050565b6134f480620002306000396000f3fe6080604052600436106101295760003560e01c80636352211e116100ab578063a22cb4651161006f578063a22cb465146103f6578063b88d4fde1461041f578063c87b56dd14610448578063dd5f851814610485578063e61a70c0146104a1578063e985e9c5146104e257610129565b80636352211e146102fb57806370a08231146103385780637749cf231461037557806378a89567146103a057806395d89b41146103cb57610129565b806323b872dd116100f257806323b872dd14610227578063320d28001461025057806342842e0e1461026c578063439ee1381461029557806345576f94146102d257610129565b8062b921cb1461012e57806301ffc9a71461015957806306fdde0314610196578063081812fc146101c1578063095ea7b3146101fe575b600080fd5b34801561013a57600080fd5b5061014361051f565b6040516101509190612049565b60405180910390f35b34801561016557600080fd5b50610180600480360381019061017b91906120d0565b61052b565b60405161018d9190612118565b60405180910390f35b3480156101a257600080fd5b506101ab61060d565b6040516101b891906121cc565b60405180910390f35b3480156101cd57600080fd5b506101e860048036038101906101e3919061221a565b61069f565b6040516101f59190612288565b60405180910390f35b34801561020a57600080fd5b50610225600480360381019061022091906122cf565b610724565b005b34801561023357600080fd5b5061024e6004803603810190610249919061230f565b61083b565b005b61026a600480360381019061026591906122cf565b61089b565b005b34801561027857600080fd5b50610293600480360381019061028e919061230f565b610bc7565b005b3480156102a157600080fd5b506102bc60048036038101906102b7919061221a565b610be7565b6040516102c991906121cc565b60405180910390f35b3480156102de57600080fd5b506102f960048036038101906102f49190612497565b610c87565b005b34801561030757600080fd5b50610322600480360381019061031d919061221a565b610d42565b60405161032f9190612288565b60405180910390f35b34801561034457600080fd5b5061035f600480360381019061035a91906124e0565b610df3565b60405161036c9190612049565b60405180910390f35b34801561038157600080fd5b5061038a610eaa565b6040516103979190612049565b60405180910390f35b3480156103ac57600080fd5b506103b5610ebb565b6040516103c29190612049565b60405180910390f35b3480156103d757600080fd5b506103e0610ecc565b6040516103ed91906121cc565b60405180910390f35b34801561040257600080fd5b5061041d60048036038101906104189190612539565b610f5e565b005b34801561042b57600080fd5b506104466004803603810190610441919061261a565b610f74565b005b34801561045457600080fd5b5061046f600480360381019061046a919061221a565b610fd6565b60405161047c91906121cc565b60405180910390f35b61049f600480360381019061049a91906122cf565b61107d565b005b3480156104ad57600080fd5b506104c860048036038101906104c3919061221a565b6112ab565b6040516104d99594939291906126be565b60405180910390f35b3480156104ee57600080fd5b5061050960048036038101906105049190612711565b61132e565b6040516105169190612118565b60405180910390f35b600a8060000154905081565b60007f80ac58cd000000000000000000000000000000000000000000000000000000007bffffffffffffffffffffffffffffffffffffffffffffffffffffffff1916827bffffffffffffffffffffffffffffffffffffffffffffffffffffffff191614806105f657507f5b5e139f000000000000000000000000000000000000000000000000000000007bffffffffffffffffffffffffffffffffffffffffffffffffffffffff1916827bffffffffffffffffffffffffffffffffffffffffffffffffffffffff1916145b806106065750610605826113c2565b5b9050919050565b60606000805461061c90612780565b80601f016020809104026020016040519081016040528092919081815260200182805461064890612780565b80156106955780601f1061066a57610100808354040283529160200191610695565b820191906000526020600020905b81548152906001019060200180831161067857829003601f168201915b5050505050905090565b60006106aa8261142c565b6106e9576040517f08c379a00000000000000000000000000000000000000000000000000000000081526004016106e090612823565b60405180910390fd5b6004600083815260200190815260200160002060009054906101000a900473ffffffffffffffffffffffffffffffffffffffff169050919050565b600061072f82610d42565b90508073ffffffffffffffffffffffffffffffffffffffff168373ffffffffffffffffffffffffffffffffffffffff160361079f576040517f08c379a0000000000000000000000000000000000000000000000000000000008152600401610796906128b5565b60405180910390fd5b8073ffffffffffffffffffffffffffffffffffffffff166107be611498565b73ffffffffffffffffffffffffffffffffffffffff1614806107ed57506107ec816107e7611498565b61132e565b5b61082c576040517f08c379a000000000000000000000000000000000000000000000000000000000815260040161082390612947565b60405180910390fd5b61083683836114a0565b505050565b61084c610846611498565b82611559565b61088b576040517f08c379a0000000000000000000000000000000000000000000000000000000008152600401610882906129d9565b60405180910390fd5b610896838383611637565b505050565b6002600954036108e0576040517f08c379a00000000000000000000000000000000000000000000000000000000081526004016108d790612a45565b60405180910390fd5b60026009819055506000600d60008381526020019081526020016000206002015490508273ffffffffffffffffffffffffffffffffffffffff16636352211e826040518263ffffffff1660e01b815260040161093c9190612049565b602060405180830381865afa158015610959573d6000803e3d6000fd5b505050506040513d601f19601f8201168201806040525081019061097d9190612a7a565b73ffffffffffffffffffffffffffffffffffffffff163373ffffffffffffffffffffffffffffffffffffffff16036109b457600080fd5b670de0b6b3a764000034146109fe576040517f08c379a00000000000000000000000000000000000000000000000000000000081526004016109f590612b19565b60405180910390fd5b600d600083815260200190815260200160002060030160009054906101000a900473ffffffffffffffffffffffffffffffffffffffff1673ffffffffffffffffffffffffffffffffffffffff166108fc349081150290604051600060405180830381858888f19350505050158015610a7a573d6000803e3d6000fd5b508273ffffffffffffffffffffffffffffffffffffffff166323b872dd600d600085815260200190815260200160002060030160009054906101000a900473ffffffffffffffffffffffffffffffffffffffff1633846040518463ffffffff1660e01b8152600401610aee93929190612b98565b600060405180830381600087803b158015610b0857600080fd5b505af1158015610b1c573d6000803e3d6000fd5b505050506001600d600084815260200190815260200160002060030160146101000a81548160ff021916908315150217905550600b60009054906101000a900473ffffffffffffffffffffffffffffffffffffffff1673ffffffffffffffffffffffffffffffffffffffff166108fc600c549081150290604051600060405180830381858888f19350505050158015610bb9573d6000803e3d6000fd5b505060016009819055505050565b610be283838360405180602001604052806000815250610f74565b505050565b60066020528060005260406000206000915090508054610c0690612780565b80601f0160208091040260200160405190810160405280929190818152602001828054610c3290612780565b8015610c7f5780601f10610c5457610100808354040283529160200191610c7f565b820191906000526020600020905b815481529060010190602001808311610c6257829003601f168201915b505050505081565b600781604051610c979190612c0b565b908152602001604051809103902060009054906101000a900460ff1615610cbd57600080fd5b610cc7600861189d565b6000610cd360086118b3565b905081600660008381526020019081526020016000209080519060200190610cfc929190611f8d565b506001600783604051610d0f9190612c0b565b908152602001604051809103902060006101000a81548160ff021916908315150217905550610d3e33826118c1565b5050565b6000806002600084815260200190815260200160002060009054906101000a900473ffffffffffffffffffffffffffffffffffffffff169050600073ffffffffffffffffffffffffffffffffffffffff168173ffffffffffffffffffffffffffffffffffffffff1603610dea576040517f08c379a0000000000000000000000000000000000000000000000000000000008152600401610de190612c94565b60405180910390fd5b80915050919050565b60008073ffffffffffffffffffffffffffffffffffffffff168273ffffffffffffffffffffffffffffffffffffffff1603610e63576040517f08c379a0000000000000000000000000000000000000000000000000000000008152600401610e5a90612d26565b60405180910390fd5b600360008373ffffffffffffffffffffffffffffffffffffffff1673ffffffffffffffffffffffffffffffffffffffff168152602001908152602001600020549050919050565b6000610eb6600a6118b3565b905090565b6000610ec760086118b3565b905090565b606060018054610edb90612780565b80601f0160208091040260200160405190810160405280929190818152602001828054610f0790612780565b8015610f545780601f10610f2957610100808354040283529160200191610f54565b820191906000526020600020905b815481529060010190602001808311610f3757829003601f168201915b5050505050905090565b610f70610f69611498565b8383611a9a565b5050565b610f85610f7f611498565b83611559565b610fc4576040517f08c379a0000000000000000000000000000000000000000000000000000000008152600401610fbb906129d9565b60405180910390fd5b610fd084848484611c06565b50505050565b6060610fe18261142c565b611020576040517f08c379a000000000000000000000000000000000000000000000000000000000815260040161101790612db8565b60405180910390fd5b600061102a611c62565b9050600081511161104a5760405180602001604052806000815250611075565b8061105484611c79565b604051602001611065929190612dd8565b6040516020818303038152906040525b915050919050565b6002600954036110c2576040517f08c379a00000000000000000000000000000000000000000000000000000000081526004016110b990612a45565b60405180910390fd5b60026009819055506110d381610d42565b73ffffffffffffffffffffffffffffffffffffffff163373ffffffffffffffffffffffffffffffffffffffff161461110a57600080fd5b600c54341461114e576040517f08c379a000000000000000000000000000000000000000000000000000000000815260040161114590612e6e565b60405180910390fd5b6111583082610724565b611162600a61189d565b600061116e600a6118b3565b90506040518060a001604052808281526020018473ffffffffffffffffffffffffffffffffffffffff1681526020018381526020013373ffffffffffffffffffffffffffffffffffffffff16815260200160001515815250600d60008381526020019081526020016000206000820151816000015560208201518160010160006101000a81548173ffffffffffffffffffffffffffffffffffffffff021916908373ffffffffffffffffffffffffffffffffffffffff1602179055506040820151816002015560608201518160030160006101000a81548173ffffffffffffffffffffffffffffffffffffffff021916908373ffffffffffffffffffffffffffffffffffffffff16021790555060808201518160030160146101000a81548160ff0219169083151502179055509050505060016009819055505050565b600d6020528060005260406000206000915090508060000154908060010160009054906101000a900473ffffffffffffffffffffffffffffffffffffffff16908060020154908060030160009054906101000a900473ffffffffffffffffffffffffffffffffffffffff16908060030160149054906101000a900460ff16905085565b6000600560008473ffffffffffffffffffffffffffffffffffffffff1673ffffffffffffffffffffffffffffffffffffffff16815260200190815260200160002060008373ffffffffffffffffffffffffffffffffffffffff1673ffffffffffffffffffffffffffffffffffffffff16815260200190815260200160002060009054906101000a900460ff16905092915050565b60007f01ffc9a7000000000000000000000000000000000000000000000000000000007bffffffffffffffffffffffffffffffffffffffffffffffffffffffff1916827bffffffffffffffffffffffffffffffffffffffffffffffffffffffff1916149050919050565b60008073ffffffffffffffffffffffffffffffffffffffff166002600084815260200190815260200160002060009054906101000a900473ffffffffffffffffffffffffffffffffffffffff1673ffffffffffffffffffffffffffffffffffffffff1614159050919050565b600033905090565b816004600083815260200190815260200160002060006101000a81548173ffffffffffffffffffffffffffffffffffffffff021916908373ffffffffffffffffffffffffffffffffffffffff160217905550808273ffffffffffffffffffffffffffffffffffffffff1661151383610d42565b73ffffffffffffffffffffffffffffffffffffffff167f8c5be1e5ebec7d5bd14f71427d1e84f3dd0314c0f7b2291e5b200ac8c7c3b92560405160405180910390a45050565b60006115648261142c565b6115a3576040517f08c379a000000000000000000000000000000000000000000000000000000000815260040161159a90612f00565b60405180910390fd5b60006115ae83610d42565b90508073ffffffffffffffffffffffffffffffffffffffff168473ffffffffffffffffffffffffffffffffffffffff1614806115f057506115ef818561132e565b5b8061162e57508373ffffffffffffffffffffffffffffffffffffffff166116168461069f565b73ffffffffffffffffffffffffffffffffffffffff16145b91505092915050565b8273ffffffffffffffffffffffffffffffffffffffff1661165782610d42565b73ffffffffffffffffffffffffffffffffffffffff16146116ad576040517f08c379a00000000000000000000000000000000000000000000000000000000081526004016116a490612f92565b60405180910390fd5b600073ffffffffffffffffffffffffffffffffffffffff168273ffffffffffffffffffffffffffffffffffffffff160361171c576040517f08c379a000000000000000000000000000000000000000000000000000000000815260040161171390613024565b60405180910390fd5b611727838383611dd9565b6117326000826114a0565b6001600360008573ffffffffffffffffffffffffffffffffffffffff1673ffffffffffffffffffffffffffffffffffffffff16815260200190815260200160002060008282546117829190613073565b925050819055506001600360008473ffffffffffffffffffffffffffffffffffffffff1673ffffffffffffffffffffffffffffffffffffffff16815260200190815260200160002060008282546117d991906130a7565b92505081905550816002600083815260200190815260200160002060006101000a81548173ffffffffffffffffffffffffffffffffffffffff021916908373ffffffffffffffffffffffffffffffffffffffff160217905550808273ffffffffffffffffffffffffffffffffffffffff168473ffffffffffffffffffffffffffffffffffffffff167fddf252ad1be2c89b69c2b068fc378daa952ba7f163c4a11628f55a4df523b3ef60405160405180910390a4611898838383611dde565b505050565b6001816000016000828254019250508190555050565b600081600001549050919050565b600073ffffffffffffffffffffffffffffffffffffffff168273ffffffffffffffffffffffffffffffffffffffff1603611930576040517f08c379a000000000000000000000000000000000000000000000000000000000815260040161192790613149565b60405180910390fd5b6119398161142c565b15611979576040517f08c379a0000000000000000000000000000000000000000000000000000000008152600401611970906131b5565b60405180910390fd5b61198560008383611dd9565b6001600360008473ffffffffffffffffffffffffffffffffffffffff1673ffffffffffffffffffffffffffffffffffffffff16815260200190815260200160002060008282546119d591906130a7565b92505081905550816002600083815260200190815260200160002060006101000a81548173ffffffffffffffffffffffffffffffffffffffff021916908373ffffffffffffffffffffffffffffffffffffffff160217905550808273ffffffffffffffffffffffffffffffffffffffff16600073ffffffffffffffffffffffffffffffffffffffff167fddf252ad1be2c89b69c2b068fc378daa952ba7f163c4a11628f55a4df523b3ef60405160405180910390a4611a9660008383611dde565b5050565b8173ffffffffffffffffffffffffffffffffffffffff168373ffffffffffffffffffffffffffffffffffffffff1603611b08576040517f08c379a0000000000000000000000000000000000000000000000000000000008152600401611aff90613221565b60405180910390fd5b80600560008573ffffffffffffffffffffffffffffffffffffffff1673ffffffffffffffffffffffffffffffffffffffff16815260200190815260200160002060008473ffffffffffffffffffffffffffffffffffffffff1673ffffffffffffffffffffffffffffffffffffffff16815260200190815260200160002060006101000a81548160ff0219169083151502179055508173ffffffffffffffffffffffffffffffffffffffff168373ffffffffffffffffffffffffffffffffffffffff167f17307eab39ab6107e8899845ad3d59bd9653f200f220920489ca2b5937696c3183604051611bf99190612118565b60405180910390a3505050565b611c11848484611637565b611c1d84848484611de3565b611c5c576040517f08c379a0000000000000000000000000000000000000000000000000000000008152600401611c53906132b3565b60405180910390fd5b50505050565b606060405180602001604052806000815250905090565b606060008203611cc0576040518060400160405280600181526020017f30000000000000000000000000000000000000000000000000000000000000008152509050611dd4565b600082905060005b60008214611cf2578080611cdb906132d3565b915050600a82611ceb919061334a565b9150611cc8565b60008167ffffffffffffffff811115611d0e57611d0d61236c565b5b6040519080825280601f01601f191660200182016040528015611d405781602001600182028036833780820191505090505b5090505b60008514611dcd57600182611d599190613073565b9150600a85611d68919061337b565b6030611d7491906130a7565b60f81b818381518110611d8a57611d896133ac565b5b60200101907effffffffffffffffffffffffffffffffffffffffffffffffffffffffffffff1916908160001a905350600a85611dc6919061334a565b9450611d44565b8093505050505b919050565b505050565b505050565b6000611e048473ffffffffffffffffffffffffffffffffffffffff16611f6a565b15611f5d578373ffffffffffffffffffffffffffffffffffffffff1663150b7a02611e2d611498565b8786866040518563ffffffff1660e01b8152600401611e4f9493929190613430565b6020604051808303816000875af1925050508015611e8b57506040513d601f19601f82011682018060405250810190611e889190613491565b60015b611f0d573d8060008114611ebb576040519150601f19603f3d011682016040523d82523d6000602084013e611ec0565b606091505b506000815103611f05576040517f08c379a0000000000000000000000000000000000000000000000000000000008152600401611efc906132b3565b60405180910390fd5b805181602001fd5b63150b7a0260e01b7bffffffffffffffffffffffffffffffffffffffffffffffffffffffff1916817bffffffffffffffffffffffffffffffffffffffffffffffffffffffff191614915050611f62565b600190505b949350505050565b6000808273ffffffffffffffffffffffffffffffffffffffff163b119050919050565b828054611f9990612780565b90600052602060002090601f016020900481019282611fbb5760008555612002565b82601f10611fd457805160ff1916838001178555612002565b82800160010185558215612002579182015b82811115612001578251825591602001919060010190611fe6565b5b50905061200f9190612013565b5090565b5b8082111561202c576000816000905550600101612014565b5090565b6000819050919050565b61204381612030565b82525050565b600060208201905061205e600083018461203a565b92915050565b6000604051905090565b600080fd5b600080fd5b60007fffffffff0000000000000000000000000000000000000000000000000000000082169050919050565b6120ad81612078565b81146120b857600080fd5b50565b6000813590506120ca816120a4565b92915050565b6000602082840312156120e6576120e561206e565b5b60006120f4848285016120bb565b91505092915050565b60008115159050919050565b612112816120fd565b82525050565b600060208201905061212d6000830184612109565b92915050565b600081519050919050565b600082825260208201905092915050565b60005b8381101561216d578082015181840152602081019050612152565b8381111561217c576000848401525b50505050565b6000601f19601f8301169050919050565b600061219e82612133565b6121a8818561213e565b93506121b881856020860161214f565b6121c181612182565b840191505092915050565b600060208201905081810360008301526121e68184612193565b905092915050565b6121f781612030565b811461220257600080fd5b50565b600081359050612214816121ee565b92915050565b6000602082840312156122305761222f61206e565b5b600061223e84828501612205565b91505092915050565b600073ffffffffffffffffffffffffffffffffffffffff82169050919050565b600061227282612247565b9050919050565b61228281612267565b82525050565b600060208201905061229d6000830184612279565b92915050565b6122ac81612267565b81146122b757600080fd5b50565b6000813590506122c9816122a3565b92915050565b600080604083850312156122e6576122e561206e565b5b60006122f4858286016122ba565b925050602061230585828601612205565b9150509250929050565b6000806000606084860312156123285761232761206e565b5b6000612336868287016122ba565b9350506020612347868287016122ba565b925050604061235886828701612205565b9150509250925092565b600080fd5b600080fd5b7f4e487b7100000000000000000000000000000000000000000000000000000000600052604160045260246000fd5b6123a482612182565b810181811067ffffffffffffffff821117156123c3576123c261236c565b5b80604052505050565b60006123d6612064565b90506123e2828261239b565b919050565b600067ffffffffffffffff8211156124025761240161236c565b5b61240b82612182565b9050602081019050919050565b82818337600083830152505050565b600061243a612435846123e7565b6123cc565b90508281526020810184848401111561245657612455612367565b5b612461848285612418565b509392505050565b600082601f83011261247e5761247d612362565b5b813561248e848260208601612427565b91505092915050565b6000602082840312156124ad576124ac61206e565b5b600082013567ffffffffffffffff8111156124cb576124ca612073565b5b6124d784828501612469565b91505092915050565b6000602082840312156124f6576124f561206e565b5b6000612504848285016122ba565b91505092915050565b612516816120fd565b811461252157600080fd5b50565b6000813590506125338161250d565b92915050565b600080604083850312156125505761254f61206e565b5b600061255e858286016122ba565b925050602061256f85828601612524565b9150509250929050565b600067ffffffffffffffff8211156125945761259361236c565b5b61259d82612182565b9050602081019050919050565b60006125bd6125b884612579565b6123cc565b9050828152602081018484840111156125d9576125d8612367565b5b6125e4848285612418565b509392505050565b600082601f83011261260157612600612362565b5b81356126118482602086016125aa565b91505092915050565b600080600080608085870312156126345761263361206e565b5b6000612642878288016122ba565b9450506020612653878288016122ba565b935050604061266487828801612205565b925050606085013567ffffffffffffffff81111561268557612684612073565b5b612691878288016125ec565b91505092959194509250565b60006126a882612247565b9050919050565b6126b88161269d565b82525050565b600060a0820190506126d3600083018861203a565b6126e06020830187612279565b6126ed604083018661203a565b6126fa60608301856126af565b6127076080830184612109565b9695505050505050565b600080604083850312156127285761272761206e565b5b6000612736858286016122ba565b9250506020612747858286016122ba565b9150509250929050565b7f4e487b7100000000000000000000000000000000000000000000000000000000600052602260045260246000fd5b6000600282049050600182168061279857607f821691505b6020821081036127ab576127aa612751565b5b50919050565b7f4552433732313a20617070726f76656420717565727920666f72206e6f6e657860008201527f697374656e7420746f6b656e0000000000000000000000000000000000000000602082015250565b600061280d602c8361213e565b9150612818826127b1565b604082019050919050565b6000602082019050818103600083015261283c81612800565b9050919050565b7f4552433732313a20617070726f76616c20746f2063757272656e74206f776e6560008201527f7200000000000000000000000000000000000000000000000000000000000000602082015250565b600061289f60218361213e565b91506128aa82612843565b604082019050919050565b600060208201905081810360008301526128ce81612892565b9050919050565b7f4552433732313a20617070726f76652063616c6c6572206973206e6f74206f7760008201527f6e6572206e6f7220617070726f76656420666f7220616c6c0000000000000000602082015250565b600061293160388361213e565b915061293c826128d5565b604082019050919050565b6000602082019050818103600083015261296081612924565b9050919050565b7f4552433732313a207472616e736665722063616c6c6572206973206e6f74206f60008201527f776e6572206e6f7220617070726f766564000000000000000000000000000000602082015250565b60006129c360318361213e565b91506129ce82612967565b604082019050919050565b600060208201905081810360008301526129f2816129b6565b9050919050565b7f5265656e7472616e637947756172643a207265656e7472616e742063616c6c00600082015250565b6000612a2f601f8361213e565b9150612a3a826129f9565b602082019050919050565b60006020820190508181036000830152612a5e81612a22565b9050919050565b600081519050612a74816122a3565b92915050565b600060208284031215612a9057612a8f61206e565b5b6000612a9e84828501612a65565b91505092915050565b7f506c65617365207375626d6974207468652061736b696e67207072696365206960008201527f6e206f7264657220746f20636f6d706c65746520746865207075726368617365602082015250565b6000612b0360408361213e565b9150612b0e82612aa7565b604082019050919050565b60006020820190508181036000830152612b3281612af6565b9050919050565b6000819050919050565b6000612b5e612b59612b5484612247565b612b39565b612247565b9050919050565b6000612b7082612b43565b9050919050565b6000612b8282612b65565b9050919050565b612b9281612b77565b82525050565b6000606082019050612bad6000830186612b89565b612bba6020830185612279565b612bc7604083018461203a565b949350505050565b600081905092915050565b6000612be582612133565b612bef8185612bcf565b9350612bff81856020860161214f565b80840191505092915050565b6000612c178284612bda565b915081905092915050565b7f4552433732313a206f776e657220717565727920666f72206e6f6e657869737460008201527f656e7420746f6b656e0000000000000000000000000000000000000000000000602082015250565b6000612c7e60298361213e565b9150612c8982612c22565b604082019050919050565b60006020820190508181036000830152612cad81612c71565b9050919050565b7f4552433732313a2062616c616e636520717565727920666f7220746865207a6560008201527f726f206164647265737300000000000000000000000000000000000000000000602082015250565b6000612d10602a8361213e565b9150612d1b82612cb4565b604082019050919050565b60006020820190508181036000830152612d3f81612d03565b9050919050565b7f4552433732314d657461646174613a2055524920717565727920666f72206e6f60008201527f6e6578697374656e7420746f6b656e0000000000000000000000000000000000602082015250565b6000612da2602f8361213e565b9150612dad82612d46565b604082019050919050565b60006020820190508181036000830152612dd181612d95565b9050919050565b6000612de48285612bda565b9150612df08284612bda565b91508190509392505050565b7f5072696365206d75737420626520657175616c20746f206c697374696e67207060008201527f7269636500000000000000000000000000000000000000000000000000000000602082015250565b6000612e5860248361213e565b9150612e6382612dfc565b604082019050919050565b60006020820190508181036000830152612e8781612e4b565b9050919050565b7f4552433732313a206f70657261746f7220717565727920666f72206e6f6e657860008201527f697374656e7420746f6b656e0000000000000000000000000000000000000000602082015250565b6000612eea602c8361213e565b9150612ef582612e8e565b604082019050919050565b60006020820190508181036000830152612f1981612edd565b9050919050565b7f4552433732313a207472616e736665722066726f6d20696e636f72726563742060008201527f6f776e6572000000000000000000000000000000000000000000000000000000602082015250565b6000612f7c60258361213e565b9150612f8782612f20565b604082019050919050565b60006020820190508181036000830152612fab81612f6f565b9050919050565b7f4552433732313a207472616e7366657220746f20746865207a65726f2061646460008201527f7265737300000000000000000000000000000000000000000000000000000000602082015250565b600061300e60248361213e565b915061301982612fb2565b604082019050919050565b6000602082019050818103600083015261303d81613001565b9050919050565b7f4e487b7100000000000000000000000000000000000000000000000000000000600052601160045260246000fd5b600061307e82612030565b915061308983612030565b92508282101561309c5761309b613044565b5b828203905092915050565b60006130b282612030565b91506130bd83612030565b9250827fffffffffffffffffffffffffffffffffffffffffffffffffffffffffffffffff038211156130f2576130f1613044565b5b828201905092915050565b7f4552433732313a206d696e7420746f20746865207a65726f2061646472657373600082015250565b600061313360208361213e565b915061313e826130fd565b602082019050919050565b6000602082019050818103600083015261316281613126565b9050919050565b7f4552433732313a20746f6b656e20616c7265616479206d696e74656400000000600082015250565b600061319f601c8361213e565b91506131aa82613169565b602082019050919050565b600060208201905081810360008301526131ce81613192565b9050919050565b7f4552433732313a20617070726f766520746f2063616c6c657200000000000000600082015250565b600061320b60198361213e565b9150613216826131d5565b602082019050919050565b6000602082019050818103600083015261323a816131fe565b9050919050565b7f4552433732313a207472616e7366657220746f206e6f6e20455243373231526560008201527f63656976657220696d706c656d656e7465720000000000000000000000000000602082015250565b600061329d60328361213e565b91506132a882613241565b604082019050919050565b600060208201905081810360008301526132cc81613290565b9050919050565b60006132de82612030565b91507fffffffffffffffffffffffffffffffffffffffffffffffffffffffffffffffff82036133105761330f613044565b5b600182019050919050565b7f4e487b7100000000000000000000000000000000000000000000000000000000600052601260045260246000fd5b600061335582612030565b915061336083612030565b9250826133705761336f61331b565b5b828204905092915050565b600061338682612030565b915061339183612030565b9250826133a1576133a061331b565b5b828206905092915050565b7f4e487b7100000000000000000000000000000000000000000000000000000000600052603260045260246000fd5b600081519050919050565b600082825260208201905092915050565b6000613402826133db565b61340c81856133e6565b935061341c81856020860161214f565b61342581612182565b840191505092915050565b60006080820190506134456000830187612279565b6134526020830186612279565b61345f604083018561203a565b818103606083015261347181846133f7565b905095945050505050565b60008151905061348b816120a4565b92915050565b6000602082840312156134a7576134a661206e565b5b60006134b58482850161347c565b9150509291505056fea2646970667358221220752bc93b67c2d45e6fc35cdfb5c99710a22c14970fea870227f91d5207d48df664736f6c634300080d0033",
  "immutableReferences": {},
  "source": "// SPDX-License-Identifier: MIT\npragma solidity 0.8.13;\n\nimport \"@openzeppelin/contracts/utils/Counters.sol\";\nimport \"@openzeppelin/contracts/token/ERC721/ERC721.sol\";\nimport \"@openzeppelin/contracts/security/ReentrancyGuard.sol\";\n\ncontract NFT is ERC721 {\n    mapping(uint256 => string) public colorsName;\n    mapping(string => bool) _colorExists;\n\n    using Counters for Counters.Counter;\n    Counters.Counter private tokenIds;\n\n    constructor() ERC721(\"ColorToken\", \"CT\") { }\n\n    function getTokenCount() public view returns (uint256) {\n        return tokenIds.current();\n    }\n\n    function createToken(string memory colorCode) public {\n        require(!_colorExists[colorCode]);\n\n        tokenIds.increment();\n        uint256 tokenId = tokenIds.current();\n        colorsName[tokenId] = colorCode;\n\n        _colorExists[colorCode] = true;\n\n        _mint(msg.sender, tokenId);\n    }\n}\n\ncontract NFTMarket is NFT,ReentrancyGuard {\n    using Counters for Counters.Counter;\n    Counters.Counter public itemIds;\n\n    address payable owner;\n    uint256 listingPrice = 0.025 ether;\n\n    constructor() {\n        owner = payable(msg.sender);\n    }\n\n    struct MarketItem {\n        uint256 itemId;\n        address nftContract;\n        uint256 tokenId;\n        address payable seller;\n        bool sold;\n    }\n\n    mapping(uint256 => MarketItem) public idToMarketItem;\n\n    function getItemCount() public view returns (uint256) {\n        return itemIds.current();\n    }\n\n    /* Places an item for sale on the marketplace */\n    function createMarketItem(address nftContract, uint256 tokenId)\n        public\n        payable\n        nonReentrant\n    {\n        \n        require(msg.sender == ownerOf(tokenId));\n        require(msg.value == listingPrice, \"Price must be equal to listing price\");\n\n        approve(address(this), tokenId);\n\n        itemIds.increment();\n        uint256 itemId = itemIds.current();\n\n        idToMarketItem[itemId] = MarketItem(\n            itemId,\n            nftContract,\n            tokenId,\n            payable(msg.sender),\n            false\n        );\n    }\n\n    /* Creates the sale of a marketplace item */\n    /* Transfers ownership of the item, as well as funds between parties */\n    function finalizeSale(address nftContract, uint256 itemId)\n        public\n        payable\n        nonReentrant\n    {\n        uint256 tokenId = idToMarketItem[itemId].tokenId;\n        require(msg.sender != IERC721(nftContract).ownerOf(tokenId));\n        require(\n            msg.value == 1 ether,\n            \"Please submit the asking price in order to complete the purchase\"\n        );\n\n        idToMarketItem[itemId].seller.transfer(msg.value);\n        IERC721(nftContract).transferFrom(\n            idToMarketItem[itemId].seller,\n            msg.sender,\n            tokenId\n        );\n        idToMarketItem[itemId].sold = true;\n        payable(owner).transfer(listingPrice);\n    }\n}",
  "sourcePath": "/home/node/lab/NFT/contracts/NFT.sol",
  "compiler": {
    "name": "solc",
    "version": "0.8.13+commit.abaa5c0e.Emscripten.clang"
  },
  "schemaVersion": "3.4.7",
  "updatedAt": "2022-05-03T20:40:12.744Z",
  "devdoc": {
    "kind": "dev",
    "methods": {
      "approve(address,uint256)": {
        "details": "See {IERC721-approve}."
      },
      "balanceOf(address)": {
        "details": "See {IERC721-balanceOf}."
      },
      "getApproved(uint256)": {
        "details": "See {IERC721-getApproved}."
      },
      "isApprovedForAll(address,address)": {
        "details": "See {IERC721-isApprovedForAll}."
      },
      "name()": {
        "details": "See {IERC721Metadata-name}."
      },
      "ownerOf(uint256)": {
        "details": "See {IERC721-ownerOf}."
      },
      "safeTransferFrom(address,address,uint256)": {
        "details": "See {IERC721-safeTransferFrom}."
      },
      "safeTransferFrom(address,address,uint256,bytes)": {
        "details": "See {IERC721-safeTransferFrom}."
      },
      "setApprovalForAll(address,bool)": {
        "details": "See {IERC721-setApprovalForAll}."
      },
      "supportsInterface(bytes4)": {
        "details": "See {IERC165-supportsInterface}."
      },
      "symbol()": {
        "details": "See {IERC721Metadata-symbol}."
      },
      "tokenURI(uint256)": {
        "details": "See {IERC721Metadata-tokenURI}."
      },
      "transferFrom(address,address,uint256)": {
        "details": "See {IERC721-transferFrom}."
      }
    },
    "version": 1
  },
  "userdoc": {
    "kind": "user",
    "methods": {},
    "version": 1
  }
}